{
  "contractName": "Counter",
  "abi": [
    {
      "inputs": [
        {
          "internalType": "uint256",
          "name": "x",
          "type": "uint256"
        }
      ],
      "stateMutability": "nonpayable",
      "type": "constructor"
    },
    {
      "inputs": [],
      "name": "counter",
      "outputs": [
        {
          "internalType": "uint256",
          "name": "",
          "type": "uint256"
        }
      ],
      "stateMutability": "view",
      "type": "function",
      "constant": true
    },
    {
      "inputs": [],
      "name": "owner",
      "outputs": [
        {
          "internalType": "address",
          "name": "",
          "type": "address"
        }
      ],
      "stateMutability": "view",
      "type": "function",
      "constant": true
    },
    {
      "inputs": [
        {
          "internalType": "uint256",
          "name": "x",
          "type": "uint256"
        }
      ],
      "name": "add",
      "outputs": [
        {
          "internalType": "uint256",
          "name": "",
          "type": "uint256"
        }
      ],
      "stateMutability": "nonpayable",
      "type": "function"
    },
    {
      "inputs": [],
      "name": "count",
      "outputs": [
        {
          "internalType": "uint256",
          "name": "",
          "type": "uint256"
        }
      ],
      "stateMutability": "nonpayable",
      "type": "function"
    }
  ],
  "bytecode": "0x608060405234801561001057600080fd5b50604051610559380380610559833981810160405281019061003291906100ba565b336000806101000a81548173ffffffffffffffffffffffffffffffffffffffff021916908373ffffffffffffffffffffffffffffffffffffffff16021790555080600181905550506100e7565b600080fd5b6000819050919050565b61009781610084565b81146100a257600080fd5b50565b6000815190506100b48161008e565b92915050565b6000602082840312156100d0576100cf61007f565b5b60006100de848285016100a5565b91505092915050565b610463806100f66000396000f3fe608060405234801561001057600080fd5b506004361061004c5760003560e01c806306661abd146100515780631003e2d21461006f57806361bc221a1461009f5780638da5cb5b146100bd575b600080fd5b6100596100db565b6040516100669190610278565b60405180910390f35b610089600480360381019061008491906102c4565b610187565b6040516100969190610278565b60405180910390f35b6100a7610235565b6040516100b49190610278565b60405180910390f35b6100c561023b565b6040516100d29190610332565b60405180910390f35b60003373ffffffffffffffffffffffffffffffffffffffff1660008054906101000a900473ffffffffffffffffffffffffffffffffffffffff1673ffffffffffffffffffffffffffffffffffffffff161461016b576040517f08c379a0000000000000000000000000000000000000000000000000000000008152600401610162906103aa565b60405180910390fd5b6001805461017991906103f9565b600181905550600154905090565b60003373ffffffffffffffffffffffffffffffffffffffff1660008054906101000a900473ffffffffffffffffffffffffffffffffffffffff1673ffffffffffffffffffffffffffffffffffffffff1614610217576040517f08c379a000000000000000000000000000000000000000000000000000000000815260040161020e906103aa565b60405180910390fd5b8160015461022591906103f9565b6001819055506001549050919050565b60015481565b60008054906101000a900473ffffffffffffffffffffffffffffffffffffffff1681565b6000819050919050565b6102728161025f565b82525050565b600060208201905061028d6000830184610269565b92915050565b600080fd5b6102a18161025f565b81146102ac57600080fd5b50565b6000813590506102be81610298565b92915050565b6000602082840312156102da576102d9610293565b5b60006102e8848285016102af565b91505092915050565b600073ffffffffffffffffffffffffffffffffffffffff82169050919050565b600061031c826102f1565b9050919050565b61032c81610311565b82525050565b60006020820190506103476000830184610323565b92915050565b600082825260208201905092915050565b7f6e6f74206f776e65722100000000000000000000000000000000000000000000600082015250565b6000610394600a8361034d565b915061039f8261035e565b602082019050919050565b600060208201905081810360008301526103c381610387565b9050919050565b7f4e487b7100000000000000000000000000000000000000000000000000000000600052601160045260246000fd5b60006104048261025f565b915061040f8361025f565b9250828201905080821115610427576104266103ca565b5b9291505056fea264697066735822122048f91f560fe776763d1fdb1b7a58152b26cd2f6bd18bb5a25c08b30edab974fb64736f6c63430008130033",
  "immutableReferences": {},
  "source": "// SPDX-License-Identifier: GPL-3.0\r\npragma solidity  ^0.8.10;\r\n\r\ncontract Counter{\r\n    address public owner;\r\n    uint public counter;\r\n    constructor(uint x){\r\n        owner = msg.sender;\r\n        counter = x;\r\n    }\r\n    /*\r\n        owner\r\n    */\r\n    function add(uint x) public returns(uint){\r\n        require(owner == msg.sender,\"not owner!\");\r\n        counter = counter + x;\r\n        return counter;\r\n    }\r\n    \r\n    function count() external returns(uint){\r\n        require(owner == msg.sender,\"not owner!\");\r\n        counter = counter + 1;\r\n        return counter;\r\n    }\r\n    \r\n\r\n   \r\n}",
  "sourcePath": "D:\\work\\upchain_camp\\W1-2\\W1_truffle\\contracts\\Counter.sol",
  "compiler": {
    "name": "solc",
    "version": "0.8.19+commit.7dd6d404.Emscripten.clang"
  },
  "schemaVersion": "3.4.13",
  "updatedAt": "2023-03-12T04:07:02.354Z",
  "networkType": "ethereum",
  "devdoc": {
    "kind": "dev",
    "methods": {},
    "version": 1
  },
  "userdoc": {
    "kind": "user",
    "methods": {},
    "version": 1
  }
}